{
  "contractName": "PaymentSplitter",
  "abi": [
    {
      "inputs": [],
      "stateMutability": "nonpayable",
      "type": "constructor"
    },
    {
      "inputs": [
        {
          "internalType": "uint256",
          "name": "",
          "type": "uint256"
        }
      ],
      "name": "amounts",
      "outputs": [
        {
          "internalType": "uint256",
          "name": "",
          "type": "uint256"
        }
      ],
      "stateMutability": "view",
      "type": "function"
    },
    {
      "inputs": [],
      "name": "defaultRecipient",
      "outputs": [
        {
          "internalType": "address payable",
          "name": "",
          "type": "address"
        }
      ],
      "stateMutability": "view",
      "type": "function"
    },
    {
      "inputs": [
        {
          "internalType": "uint256",
          "name": "",
          "type": "uint256"
        }
      ],
      "name": "recipients",
      "outputs": [
        {
          "internalType": "address payable",
          "name": "",
          "type": "address"
        }
      ],
      "stateMutability": "view",
      "type": "function"
    },
    {
      "stateMutability": "payable",
      "type": "receive"
    },
    {
      "inputs": [],
      "name": "getTotalAmount",
      "outputs": [
        {
          "internalType": "uint256",
          "name": "",
          "type": "uint256"
        }
      ],
      "stateMutability": "view",
      "type": "function"
    },
    {
      "inputs": [
        {
          "internalType": "address payable[]",
          "name": "_recipients",
          "type": "address[]"
        },
        {
          "internalType": "uint256[]",
          "name": "_amounts",
          "type": "uint256[]"
        }
      ],
      "name": "setRecipientsAndAmounts",
      "outputs": [],
      "stateMutability": "nonpayable",
      "type": "function"
    },
    {
      "inputs": [
        {
          "internalType": "address payable",
          "name": "_defaultRecipient",
          "type": "address"
        }
      ],
      "name": "setDefaultRecipient",
      "outputs": [],
      "stateMutability": "nonpayable",
      "type": "function"
    }
  ],
  "bytecode": "0x608060405234801561001057600080fd5b50610fd9806100206000396000f3fe6080604052600436106100595760003560e01c80630b5e8df91461033c5780632b3f23961461036757806345f0a44f146103905780634f7a6c3c146103cd57806365ac4341146103f6578063d1bc76a11461042157610337565b3661033757600073ffffffffffffffffffffffffffffffffffffffff16600260009054906101000a900473ffffffffffffffffffffffffffffffffffffffff1673ffffffffffffffffffffffffffffffffffffffff16036100ef576040517f08c379a00000000000000000000000000000000000000000000000000000000081526004016100e6906107e5565b60405180910390fd5b60018054905060008054905014801561010c575060008080549050115b61014b576040517f08c379a000000000000000000000000000000000000000000000000000000000815260040161014290610877565b60405180910390fd5b61015361045e565b471015610195576040517f08c379a000000000000000000000000000000000000000000000000000000000815260040161018c90610909565b60405180910390fd5b60005b6000805490508110156102bc576000600182815481106101bb576101ba610929565b5b906000526020600020015411610206576040517f08c379a00000000000000000000000000000000000000000000000000000000081526004016101fd906109ca565b60405180910390fd5b6000818154811061021a57610219610929565b5b9060005260206000200160009054906101000a900473ffffffffffffffffffffffffffffffffffffffff1673ffffffffffffffffffffffffffffffffffffffff166108fc6001838154811061027257610271610929565b5b90600052602060002001549081150290604051600060405180830381858888f193505050501580156102a8573d6000803e3d6000fd5b5080806102b490610a23565b915050610198565b506000479050600081111561033557600260009054906101000a900473ffffffffffffffffffffffffffffffffffffffff1673ffffffffffffffffffffffffffffffffffffffff166108fc829081150290604051600060405180830381858888f19350505050158015610333573d6000803e3d6000fd5b505b005b600080fd5b34801561034857600080fd5b506103516104bc565b60405161035e9190610aac565b60405180910390f35b34801561037357600080fd5b5061038e60048036038101906103899190610d4f565b6104e2565b005b34801561039c57600080fd5b506103b760048036038101906103b29190610dc7565b610558565b6040516103c49190610e03565b60405180910390f35b3480156103d957600080fd5b506103f460048036038101906103ef9190610e1e565b61057c565b005b34801561040257600080fd5b5061040b61045e565b6040516104189190610e03565b60405180910390f35b34801561042d57600080fd5b5061044860048036038101906104439190610dc7565b61062f565b6040516104559190610aac565b60405180910390f35b6000806000905060005b6001805490508110156104b4576001818154811061048957610488610929565b5b90600052602060002001548261049f9190610e4b565b915080806104ac90610a23565b915050610468565b508091505090565b600260009054906101000a900473ffffffffffffffffffffffffffffffffffffffff1681565b8051825114610526576040517f08c379a000000000000000000000000000000000000000000000000000000000815260040161051d90610ef1565b60405180910390fd5b816000908051906020019061053c92919061066e565b5080600190805190602001906105539291906106f8565b505050565b6001818154811061056857600080fd5b906000526020600020016000915090505481565b600073ffffffffffffffffffffffffffffffffffffffff168173ffffffffffffffffffffffffffffffffffffffff16036105eb576040517f08c379a00000000000000000000000000000000000000000000000000000000081526004016105e290610f83565b60405180910390fd5b80600260006101000a81548173ffffffffffffffffffffffffffffffffffffffff021916908373ffffffffffffffffffffffffffffffffffffffff16021790555050565b6000818154811061063f57600080fd5b906000526020600020016000915054906101000a900473ffffffffffffffffffffffffffffffffffffffff1681565b8280548282559060005260206000209081019282156106e7579160200282015b828111156106e65782518260006101000a81548173ffffffffffffffffffffffffffffffffffffffff021916908373ffffffffffffffffffffffffffffffffffffffff1602179055509160200191906001019061068e565b5b5090506106f49190610745565b5090565b828054828255906000526020600020908101928215610734579160200282015b82811115610733578251825591602001919060010190610718565b5b5090506107419190610745565b5090565b5b8082111561075e576000816000905550600101610746565b5090565b600082825260208201905092915050565b7f5061796d656e7453706c69747465723a2044656661756c74207265636970696560008201527f6e74206e6f7420696e697469616c697a65642e00000000000000000000000000602082015250565b60006107cf603383610762565b91506107da82610773565b604082019050919050565b600060208201905081810360008301526107fe816107c2565b9050919050565b7f5061796d656e7453706c69747465723a20526563697069656e747320616e642060008201527f616d6f756e7473206e6f7420696e697469616c697a65642e0000000000000000602082015250565b6000610861603883610762565b915061086c82610805565b604082019050919050565b6000602082019050818103600083015261089081610854565b9050919050565b7f5061796d656e7453706c69747465723a20496e73756666696369656e7420626160008201527f6c616e636520746f2070617920616c6c20726563697069656e74732e00000000602082015250565b60006108f3603c83610762565b91506108fe82610897565b604082019050919050565b60006020820190508181036000830152610922816108e6565b9050919050565b7f4e487b7100000000000000000000000000000000000000000000000000000000600052603260045260246000fd5b7f5061796d656e7453706c69747465723a20416d6f756e7420697320746f6f207360008201527f6d616c6c20746f2073656e642e00000000000000000000000000000000000000602082015250565b60006109b4602d83610762565b91506109bf82610958565b604082019050919050565b600060208201905081810360008301526109e3816109a7565b9050919050565b7f4e487b7100000000000000000000000000000000000000000000000000000000600052601160045260246000fd5b6000819050919050565b6000610a2e82610a19565b91507fffffffffffffffffffffffffffffffffffffffffffffffffffffffffffffffff8203610a6057610a5f6109ea565b5b600182019050919050565b600073ffffffffffffffffffffffffffffffffffffffff82169050919050565b6000610a9682610a6b565b9050919050565b610aa681610a8b565b82525050565b6000602082019050610ac16000830184610a9d565b92915050565b6000604051905090565b600080fd5b600080fd5b600080fd5b6000601f19601f8301169050919050565b7f4e487b7100000000000000000000000000000000000000000000000000000000600052604160045260246000fd5b610b2982610ae0565b810181811067ffffffffffffffff82111715610b4857610b47610af1565b5b80604052505050565b6000610b5b610ac7565b9050610b678282610b20565b919050565b600067ffffffffffffffff821115610b8757610b86610af1565b5b602082029050602081019050919050565b600080fd5b610ba681610a8b565b8114610bb157600080fd5b50565b600081359050610bc381610b9d565b92915050565b6000610bdc610bd784610b6c565b610b51565b90508083825260208201905060208402830185811115610bff57610bfe610b98565b5b835b81811015610c285780610c148882610bb4565b845260208401935050602081019050610c01565b5050509392505050565b600082601f830112610c4757610c46610adb565b5b8135610c57848260208601610bc9565b91505092915050565b600067ffffffffffffffff821115610c7b57610c7a610af1565b5b602082029050602081019050919050565b610c9581610a19565b8114610ca057600080fd5b50565b600081359050610cb281610c8c565b92915050565b6000610ccb610cc684610c60565b610b51565b90508083825260208201905060208402830185811115610cee57610ced610b98565b5b835b81811015610d175780610d038882610ca3565b845260208401935050602081019050610cf0565b5050509392505050565b600082601f830112610d3657610d35610adb565b5b8135610d46848260208601610cb8565b91505092915050565b60008060408385031215610d6657610d65610ad1565b5b600083013567ffffffffffffffff811115610d8457610d83610ad6565b5b610d9085828601610c32565b925050602083013567ffffffffffffffff811115610db157610db0610ad6565b5b610dbd85828601610d21565b9150509250929050565b600060208284031215610ddd57610ddc610ad1565b5b6000610deb84828501610ca3565b91505092915050565b610dfd81610a19565b82525050565b6000602082019050610e186000830184610df4565b92915050565b600060208284031215610e3457610e33610ad1565b5b6000610e4284828501610bb4565b91505092915050565b6000610e5682610a19565b9150610e6183610a19565b9250828201905080821115610e7957610e786109ea565b5b92915050565b7f5061796d656e7453706c69747465723a20556e657175616c206172726179206c60008201527f656e677468730000000000000000000000000000000000000000000000000000602082015250565b6000610edb602683610762565b9150610ee682610e7f565b604082019050919050565b60006020820190508181036000830152610f0a81610ece565b9050919050565b7f5061796d656e7453706c69747465723a2044656661756c74207265636970696560008201527f6e742063616e6e6f74206265207a65726f206164647265737300000000000000602082015250565b6000610f6d603983610762565b9150610f7882610f11565b604082019050919050565b60006020820190508181036000830152610f9c81610f60565b905091905056fea2646970667358221220ee1d18eebdaa2740c0d98798109ee3df2f27b4262feb519ad1a590642f54b4b964736f6c63430008130033",
  "immutableReferences": {},
  "source": "// SPDX-License-Identifier: GPL-3.0\npragma solidity ^0.8.0;\n\ncontract PaymentSplitter {\n    address payable[] public recipients;\n    uint[] public amounts;\n    address payable public defaultRecipient;\n    \n    constructor() {}\n    \n    receive() external payable {\n        require(defaultRecipient != address(0), \"PaymentSplitter: Default recipient not initialized.\");\n        require(recipients.length == amounts.length && recipients.length > 0, \"PaymentSplitter: Recipients and amounts not initialized.\");\n        require(address(this).balance >= getTotalAmount(), \"PaymentSplitter: Insufficient balance to pay all recipients.\");\n        \n        for (uint i = 0; i < recipients.length; i++) {\n            require(amounts[i] > 0, \"PaymentSplitter: Amount is too small to send.\");\n            recipients[i].transfer(amounts[i]);\n        }\n        \n        uint remainder = address(this).balance;\n        if (remainder > 0) {\n            defaultRecipient.transfer(remainder);\n        }\n    }\n    \n    function getTotalAmount() public view returns (uint) {\n        uint totalAmount = 0;\n        for (uint i = 0; i < amounts.length; i++) {\n            totalAmount += amounts[i];\n        }\n        return totalAmount;\n    }\n    \n    function setRecipientsAndAmounts(address payable[] memory _recipients, uint[] memory _amounts) public {\n        require(_recipients.length == _amounts.length, \"PaymentSplitter: Unequal array lengths\");\n        recipients = _recipients;\n        amounts = _amounts;\n    }\n    \n    function setDefaultRecipient(address payable _defaultRecipient) public {\n        require(_defaultRecipient != address(0), \"PaymentSplitter: Default recipient cannot be zero address\");\n        defaultRecipient = _defaultRecipient;\n    }\n}\n",
  "sourcePath": "/Users/alexrodriguez/Workspace/gits/paymentSplitter/contracts/PaymentSplitter.sol",
  "compiler": {
    "name": "solc",
    "version": "0.8.19+commit.7dd6d404.Emscripten.clang"
  },
  "schemaVersion": "3.4.13",
  "updatedAt": "2023-05-12T14:13:02.772Z",
  "devdoc": {
    "kind": "dev",
    "methods": {},
    "version": 1
  },
  "userdoc": {
    "kind": "user",
    "methods": {},
    "version": 1
  }
}